:100000000C9434000C9451000C9451000C94510049
:100010000C9451000C9451000C9451000C9451001C
:100020000C9451000C9451000C9451000C9451000C
:100030000C9451000C9451000C9451000C945100FC
:100040000C9451000C9451000C9453000C945100EA
:100050000C9451000C9451000C9451000C945100DC
:100060000C9451000C94510011241FBECFEFD8E026
:10007000DEBFCDBF11E0A0E0B1E0E8EDF3E002C0EB
:1000800005900D92A235B107D9F711E0A2E5B1E0D4
:1000900001C01D92A235B107E1F70E94B6000C9491
:1000A000EA010C9400001F920F920FB60F921124D8
:1000B0002F933F934F935F936F937F938F939F9370
:1000C000AF93BF93CF93EF93FF93C091C600C83710
:1000D00069F480E091E00E943F018FEF9DE3A9E485
:1000E00081509040A040E1F700C00000E0ECF0E05B
:1000F000808185FFFDCFC093C600FF91EF91CF9126
:10010000BF91AF919F918F917F916F915F914F912F
:100110003F912F910F900FBE0F901F901895269A28
:100120002E9A8FE39CE90197F1F700C000002E980A
:100130008FE39CE90197F1F700C0000080E090E0B8
:100140000895CF93CCE38FEF99E6A8E181509040DA
:10015000A040E1F700C000004A9903C0C65F0E94BA
:100160008F00C150C23078F7CF9108950E940701E7
:100170008091C00085FD09C0A6ECB0E0E0ECF0E0A5
:1001800084B78C93808185FFFBCFC7E0D1E01BEE65
:10019000CE010E943F018FEF99E6A8E18150904087
:1001A000A040E1F700C000004A99F2CF12C088B524
:1001B000912F981B892F923048F0A3EFB1E011974F
:1001C000F1F700C0000081508130B9F788B5815047
:1001D00088BD88B5853158F70E94A10014C088B544
:1001E000B12FB81B8B2FB23048F0EFE9FFE0319709
:1001F000F1F700C0000081508130B9F788B58F5FFA
:1002000088BD4A9BE6CF88B58B3E10F6E8CF529862
:100210005A9A279A2F9A89E190E00E94C401789413
:100220000E94DD018FEF90E7A2E081509040A04056
:10023000E1F700C000000895279A2F988FE798E310
:10024000A1E081509040A040E1F700C000002F9A4B
:1002500027988FEF9BE7A2E981509040A040E1F7FB
:1002600000C0000008950E94D5018FE798E3A1E047
:1002700081509040A040E1F700C000000895CF9366
:10028000DF93EC018881882331F021960E943301AD
:1002900089918823D9F7DF91CF9108958FEF9BE45F
:1002A000ADE181509040A040E1F700C000008CE03B
:1002B00091E00E943F018FEF9BE4ADE181509040BF
:1002C000A040E1F700C0000008950E943F018DE0CA
:1002D0000E94330108950E941C0180E191E00E9478
:1002E000650184E191E00E94650189E191E00E944D
:1002F00065018EE191E00E94650183E291E00E9438
:10030000650188E291E00E9465018BE391E00E9423
:10031000650184E491E00E94650189E491E00E9416
:1003200065018EE491E00E9465018FEF99E6A8E1F6
:1003300081509040A040E1F700C000000E941C01E5
:100340000895CF93279A2F9ACDE10E948F008FEFC7
:1003500099E6A8E181509040A040E1F700C000007C
:100360004A990BC08FE79AE1A6E081509040A040E7
:10037000E1F700C0000081E003C0C15031F780E028
:10038000CF9108952F9808959093C5008093C4004D
:100390001092C000E1ECF0E0808188698083E2EC9B
:1003A000F0E08081866080830895E0ECF0E0908149
:1003B00095FFFDCF8093C60008958AB180668AB903
:1003C00081EF84BD81E085BD8FEF86BD87BD8BEE5B
:0803D00088BD0895F894FFCFE9
:1003D80068616C6C6F0A005761730A002B2B2B0045
:1003E8000D415400415445300041545131004154AD
:1003F800433100415452310041544E3D426C7565C1
:10040800436F6E74726F6C6C6572004154503D316D
:100418003233340041544430004154583000415480
:020428004F0083
:00000001FF
