:100000000C9434000C9451000C9451000C94510049
:100010000C9451000C9451000C9451000C9451001C
:100020000C9451000C9451000C9451000C9451000C
:100030000C9451000C9451000C9451000C945100FC
:100040000C9451000C9451000C9466000C945100D7
:100050000C9451000C9451000C9451000C945100DC
:100060000C9451000C94510011241FBECFEFD8E026
:10007000DEBFCDBF11E0A0E0B1E0E4E0F3E002C0FC
:1000800005900D92A035B107D9F711E0A0E5B1E0D8
:1000900001C01D92A035B107E1F70E9453000C94F6
:1000A00080010C9400000E949E000E942401C0E088
:1000B000D1E0CE010E94BF008FEF99E6A8E1815008
:1000C0009040A040E1F700C00000F3CF1F920F92D4
:1000D0000FB60F9211242F933F934F935F936F931B
:1000E0007F938F939F93AF93BF93EF93FF938091F1
:1000F000C600883771F485E091E00E94BF008FEF61
:100100009DE3A9E481509040A040E1F700C00000C9
:1001100004C0893711F40E940701FF91EF91BF914C
:10012000AF919F918F917F916F915F914F913F918F
:100130002F910F900FBE0F901F90189552985A9ABA
:10014000279A2F9A89E190E00E945A0178940E94A0
:1001500073018FEF90E7A2E081509040A040E1F75B
:1001600000C0000008950E946B018FE798E3A1E0B2
:1001700081509040A040E1F700C000000895CF9367
:10018000DF93EC018881882331F021960E94B3002F
:1001900089918823D9F7DF91CF9108958FEF9BE460
:1001A000ADE181509040A040E1F700C0000080E147
:1001B00091E00E94BF008FEF9BE4ADE18150904041
:1001C000A040E1F700C0000008950E94BF008DE04C
:1001D0000E94B3000895279A2F9A8DE12FEF39E6F8
:1001E00048E1215030404040E1F700C000004A990A
:1001F0000BC08FE79AE1A6E081509040A040E1F764
:1002000000C0000081E00895815041F708952F98C3
:100210008FE798E3A1E081509040A040E1F700C053
:10022000000008952F9A0895279A0E9407010E94BE
:10023000120127988FEF9BE7A2E981509040A040E0
:10024000E1F700C0000008950E94140184E191E0EC
:100250000E94E50088E191E00E94E5008DE191E0D7
:100260000E94E50082E291E00E94E50087E291E0D1
:100270000E94E5008CE291E00E94E50088E391E0B5
:100280000E94E50081E491E00E94E50086E491E0AF
:100290000E94E5008BE491E00E94E5008FEF99E673
:1002A000A8E181509040A040E1F700C000000E940A
:1002B000140108959093C5008093C4001092C0006B
:1002C000E1ECF0E0808188698083E2ECF0E08081FD
:1002D000866080830895E0ECF0E0908195FFFDCF8B
:1002E0008093C60008958AB180668AB981EF84BD83
:1002F00081E085BD8FEF86BD87BD8BEE88BD0895FB
:04030000F894FFCF9F
:10030400576173200048616C6C6F57656C742000F2
:100314002B2B2B000D4154004154453000415451C6
:1003240031004154433100415452310041544E3D57
:10033400426C7565434343004154503D313233347C
:10034400004154443000415458300041544F00009F
:00000001FF
