:100000000C9434000C9451000C9451000C94510049
:100010000C9451000C9451000C9451000C9451001C
:100020000C9451000C9451000C9451000C9451000C
:100030000C9451000C9451000C9451000C945100FC
:100040000C9451000C9451000C9466000C945100D7
:100050000C9451000C9451000C9451000C945100DC
:100060000C9451000C94510011241FBECFEFD8E026
:10007000DEBFCDBF11E0A0E0B1E0E6E1F3E002C0F9
:1000800005900D92A635B107D9F711E0A6E5B1E0CC
:1000900001C01D92A635B107E1F70E9453000C94F0
:1000A00089010C9400000E949E000E940201C0E0A1
:1000B000D1E0CE010E94D6008FEF99E6A8E18150F1
:1000C0009040A040E1F700C00000F3CF1F920F92D4
:1000D0000FB60F9211242F933F934F935F936F931B
:1000E0007F938F939F93AF93BF93EF93FF938091F1
:1000F000C600883771F485E091E00E94D6008FEF4A
:100100009DE3A9E481509040A040E1F700C00000C9
:1001100004C0893711F40E945401FF91EF91BF91FF
:10012000AF919F918F917F916F915F914F913F918F
:100130002F910F900FBE0F901F90189552985A9ABA
:10014000279A2F9A89E190E00E94630178940E9497
:100150007C018FEF90E7A2E081509040A040E1F752
:1001600000C000000895279A2F988FE798E3A1E038
:1001700081509040A040E1F700C000002F9A2798DE
:100180008FEF9BE7A2E981509040A040E1F700C0CB
:10019000000008950E9474018FE798E3A1E0815068
:1001A0009040A040E1F700C000000895CF93DF9396
:1001B000EC018881882331F021960E94CA00899140
:1001C0008823D9F7DF91CF9108958FEF9BE4ADE1BC
:1001D00081509040A040E1F700C0000080E191E034
:1001E0000E94D6008FEF9BE4ADE181509040A0408B
:1001F000E1F700C0000008950E94D6008DE00E9443
:10020000CA0008950E94B30084E191E00E94FC00BE
:1002100088E191E00E94FC008DE191E00E94FC00E9
:1002200082E291E00E94FC0087E291E00E94FC00E3
:100230008CE291E00E94FC008FE391E00E94FC00C0
:1002400088E491E00E94FC008DE491E00E94FC00B3
:1002500082E591E00E94FC008FEF99E6A8E18150D1
:100260009040A040E1F700C000000E94B300089554
:10027000279A2F9A8DE12FEF39E648E1215030403F
:100280004040E1F700C000004A990BC08FE79AE1B7
:10029000A6E081509040A040E1F700C0000081E05E
:1002A0000895815041F708952F988FE798E3A1E0D2
:1002B00081509040A040E1F700C00000089585B152
:1002C000807885B908959093C5008093C4001092FA
:1002D000C000E1ECF0E0808188698083E2ECF0E02E
:1002E0008081866080830895E0ECF0E0908195FF46
:1002F000FDCF8093C60008958AB180668AB981EFE8
:1003000084BD81E085BD8FEF86BD87BD8BEE88BD46
:060310000895F894FFCFF0
:10031600576173200048616C6C6F57656C742000E0
:100326002B2B2B000D4154004154453000415451B4
:1003360031004154433100415452310041544E3D45
:10034600426C7565436F6E74726F6C6C65720041BA
:1003560054503D31323334004154443000415458F6
:06036600300041544F007D
:00000001FF
