:100000000C9434000C9451000C9451000C94510049
:100010000C9451000C9451000C9451000C9451001C
:100020000C9451000C9451000C9451000C9451000C
:100030000C9451000C9451000C9451000C945100FC
:100040000C9451000C9451000C9453000C945100EA
:100050000C9451000C9451000C9451000C945100DC
:100060000C9451000C94510011241FBECFEFD8E026
:10007000DEBFCDBF11E0A0E0B1E0E2E0F4E002C0FD
:1000800005900D92A235B107D9F711E0A2E5B1E0D4
:1000900001C01D92A335B107E1F70E94BE000C9488
:1000A000FF010C9400001F920F920FB60F921124C3
:1000B0002F933F934F935F936F937F938F939F9370
:1000C000AF93BF93CF93EF93FF93C091C600C83710
:1000D00069F480E091E00E9454018FEF9DE3A9E470
:1000E00081509040A040E1F700C00000E0ECF0E05B
:1000F000808185FFFDCFC093C600FF91EF91CF9126
:10010000BF91AF919F918F917F916F915F914F912F
:100110003F912F910F900FBE0F901F901895269A28
:100120002E9A8FE39CE90197F1F700C000002E980A
:100130008FE39CE90197F1F700C0000080E090E0B8
:1001400008958CE3809352018FEF99E6A8E18150E6
:100150009040A040E1F700C000004A9907C080919C
:100160005201865F809352010E948F00809152015C
:10017000815080935201823038F708950E941C010B
:100180000E9480018091C00085FD09C0A6ECB0E00E
:10019000E0ECF0E084B78C93808185FFFBCFC7E073
:1001A000D1E01BEECE010E9454018FEF99E6A8E149
:1001B00081509040A040E1F700C000004A99F2CF82
:1001C00017C088B5912F981B90935201923068F018
:1001D000A3EFB1E01197F1F700C000008091520148
:1001E000815080935201823098F788B5815088BD44
:1001F00088B5853130F70E94A10019C088B5B12FAC
:10020000B81BB0935201B23068F08FE99FE00197BC
:10021000F1F700C00000809152018150809352019B
:10022000823098F788B58F5F88BD4A9BE1CF88B54B
:100230008B3E08F0B7CFE2CF52985A9A279A2F9A5E
:1002400089E190E00E94D90178940E94F2018FEF39
:1002500090E7A2E081509040A040E1F700C000008C
:100260000895279A2F988FE798E3A1E08150904056
:10027000A040E1F700C000002F9A27988FEF9BE77E
:10028000A2E981509040A040E1F700C0000008952D
:100290000E94EA018FE798E3A1E081509040A040DE
:1002A000E1F700C000000895CF93DF93EC0188814F
:1002B000882331F021960E94480189918823D9F73B
:1002C000DF91CF9108958FEF9BE4ADE18150904095
:1002D000A040E1F700C000008CE091E00E945401D2
:1002E0008FEF9BE4ADE181509040A040E1F700C06A
:1002F000000008950E9454018DE00E944801089575
:100300000E94310180E191E00E947A0184E191E054
:100310000E947A0189E191E00E947A018EE191E0E8
:100320000E947A0183E291E00E947A0188E291E0E2
:100330000E947A018BE391E00E947A0184E491E0CB
:100340000E947A0189E491E00E947A018EE491E0B2
:100350000E947A018FEF99E6A8E181509040A04079
:10036000E1F700C000000E9431010895CF93279A61
:100370002F9ACDE10E948F008FEF99E6A8E181507E
:100380009040A040E1F700C000004A990BC08FE701
:100390009AE1A6E081509040A040E1F700C0000043
:1003A00081E003C0C15031F780E0CF9108952F98CC
:1003B00008959093C5008093C4001092C000E1ECB2
:1003C000F0E0808188698083E2ECF0E080818660E3
:1003D00080830895E0ECF0E0908195FFFDCF80935D
:1003E000C60008958AB180668AB981EF84BD81E034
:1003F00085BD8FEF86BD87BD8BEE88BD0895F894CF
:02040000FFCF2C
:1004020068616C6C6F0A005761730A002B2B2B001A
:100412000D41540041544530004154513100415482
:10042200433100415452310041544E3D426C756596
:10043200436F6E74726F6C6C6572004154503D3143
:100442003233340041544430004154583000415456
:020452004F0059
:00000001FF
