:100000000C9434000C9451000C9451000C94510049
:100010000C9451000C9451000C9451000C9451001C
:100020000C9451000C9451000C9451000C9451000C
:100030000C9451000C9451000C9451000C945100FC
:100040000C9451000C9451000C9451000C945100EC
:100050000C9451000C9451000C9451000C945100DC
:100060000C9451000C94510011241FBECFEFD8E026
:10007000DEBFCDBF11E0A0E0B1E0EAE1F1E002C0F7
:1000800005900D92A630B107D9F711E0A6E0B1E0D6
:1000900001C01D92A630B107E1F70E9453000C94F5
:1000A0008B000C9400000E946400C0E0D1E0CE01FF
:1000B0000E947C008FEF98E0ADE381509040A0401B
:1000C000E1F700C00000F3CF1092C5008AE08093F2
:1000D000C400E1ECF0E0808188608083E2ECF0E035
:1000E00080818E6080830895E0ECF0E0908195FF40
:1000F000FDCF8093C6000895CF93DF93EC018881F4
:10010000882331F021960E94740089918823D9F7C1
:0A011000DF91CF910895F894FFCF1E
:06011A0048616C6C6F00EF
:00000001FF
