:100000000C9434000C9451000C9451000C94510049
:100010000C9451000C9451000C9451000C9451001C
:100020000C9451000C9451000C9451000C9451000C
:100030000C9451000C9451000C9451000C945100FC
:100040000C9451000C9451000C9467000C945100D6
:100050000C9451000C9451000C9451000C945100DC
:100060000C9451000C94510011241FBECFEFD8E026
:10007000DEBFCDBF11E0A0E0B1E0E0EAF1E002C0F8
:1000800005900D92AE30B107D9F711E0AEE0B1E0C6
:1000900001C01D92AE30B107E1F70E9453000C94ED
:1000A000CE000C9400000E949A0078940E94C10037
:1000B000C0E0D1E0CE010E94B2008FEF98E0ADE346
:1000C00081509040A040E1F700C00000F3CF1F92A4
:1000D0000F920FB60F9211242F933F934F935F937C
:1000E0006F937F938F939F93AF93BF93EF93FF9300
:1000F0008091C600883769F487E091E00E94B200E1
:100100008FEF9AE1A7EB81509040A040E1F700C04B
:100110000000FF91EF91BF91AF919F918F917F91DF
:100120006F915F914F913F912F910F900FBE0F9064
:100130001F9018951092C5008AE08093C400E1ECEE
:10014000F0E0808188698083E2ECF0E08081866065
:1001500080830895E0ECF0E0908195FFFDCF8093DF
:10016000C6000895CF93DF93EC018881882331F096
:1001700021960E94AA0089918823D9F7DF91CF9117
:1001800008958AB180668AB981EF84BD81E085BD1A
:100190008FEF86BD87BD8BEE88BD0895F894FFCFA5
:0E01A00048656C6C6F2000576F726C64200015
:00000001FF
