:100000000C9434000C9451000C9451000C94510049
:100010000C9451000C9451000C9451000C9451001C
:100020000C9451000C9451000C9451000C9451000C
:100030000C9451000C9451000C9451000C945100FC
:100040000C9451000C9451000C9418010C94510024
:100050000C9451000C9451000C9451000C945100DC
:100060000C9451000C94510011241FBECFEFD8E026
:10007000DEBFCDBF11E0A0E0B1E0E4E0F3E002C0FC
:1000800005900D92A635B107D9F711E0A6E5B1E0CC
:1000900001C01D92A336B107E1F70E9413010C9431
:1000A00080010C94000089E190E00E945101789455
:1000B0000E946A018FEF90E7A2E081509040A0403B
:1000C000E1F700C000000895279A2F988FE798E382
:1000D000A1E081509040A040E1F700C000000895E9
:1000E0002F9A27988FEF9BE7A2E981509040A0407C
:1000F000E1F700C0000008950E9464000E947000B3
:1001000008950E9462018FE798E3A1E0815090403A
:10011000A040E1F700C000000895CF93DF93EC0109
:100120008881882331F021960E948100899188235B
:10013000D9F7DF91CF9108958FEF9BE4ADE1815026
:100140009040A040E1F700C0000080E091E00E94F4
:100150008D008FEF9BE4ADE181509040A040E1F72E
:1001600000C0000008950E948D008DE00E94810073
:1001700008950E947C0084E091E00E94B30088E032
:1001800091E00E94B3008DE091E00E94B30082E113
:1001900091E00E94B30087E191E00E94B3008CE1FE
:1001A00091E00E94B3008FE291E00E94B30088E3E7
:1001B00091E00E94B3008DE391E00E94B30082E4DD
:1001C00091E00E94B3008FEF99E6A8E18150904042
:1001D000A040E1F700C000000E947C000895269A2C
:1001E00001978230910508F015B808958091570164
:1001F0008130E1F788E591E066E471E00E947701E3
:10020000282F392F2115310539F481E591E00E941D
:100210008D0081E090E002C082E090E010925701F2
:100220000E94EF0008950E9453000E94F600FDCF47
:100230001F920F920FB60F9211248F939F93EF93FB
:10024000FF938091C60090915701992309F58A3058
:1002500099F08D3089F0909156019A3068F4909120
:100260005601E8E5F1E0E90FF11D80838091560128
:100270008F5F809356010CC080915601E8E5F1E054
:10028000E80FF11D10821092560181E08093570112
:10029000FF91EF919F918F910F900FBE0F901F9044
:1002A00018959093C5008093C4001092C000E1ECB3
:1002B000F0E0808188698083E2ECF0E080818660F4
:1002C00080830895E0ECF0E0908195FFFDCF80936E
:1002D000C60008958AB180668AB981EF84BD81E045
:1002E00085BD8FEF86BD87BD8BEE88BD0895FB0170
:1002F000DC018D91019080190110D9F3990B0895BB
:04030000F894FFCF9F
:100304002B2B2B000D4154004154453000415451D6
:1003140031004154433100415452310041544E3D67
:10032400426C7565636F6E74726F6C6C65720041BC
:1003340054503D3132333400415444300041545818
:10034400300041544F00777573656C647573656C48
:060354000078797A000038
:00000001FF
