:100000000C9434000C9451000C9451000C94510049
:100010000C9451000C9451000C9451000C9451001C
:100020000C9451000C9451000C9451000C9451000C
:100030000C9451000C9451000C9451000C945100FC
:100040000C9451000C9451000C9435010C94510007
:100050000C9451000C9451000C9451000C945100DC
:100060000C9451000C94510011241FBECFEFD8E026
:10007000DEBFCDBF11E0A0E0B1E0E8E1F3E002C0F7
:1000800005900D92AC35B107D9F711E0ACE5B1E0C0
:1000900001C01D92AE35B107E1F70E94EF000C944C
:1000A0008A010C94000089E190E00E945B01789441
:1000B0000E9474018FEF90E7A2E081509040A04031
:1000C000E1F700C000000895279A2F988FE798E382
:1000D000A1E081509040A040E1F700C000000895E9
:1000E0002F9A27988FEF9BE7A2E981509040A0407C
:1000F000E1F700C0000008950E9464000E947000B3
:1001000008950E946C018FE798E3A1E08150904030
:10011000A040E1F700C000000895CF93DF93EC0109
:100120008881882331F021960E948100899188235B
:10013000D9F7DF91CF9108958FEF9BE4ADE1815026
:100140009040A040E1F700C0000080E091E00E94F4
:100150008D008FEF9BE4ADE181509040A040E1F72E
:1001600000C0000008950E948D008DE00E94810073
:1001700008950E947C0084E091E00E94B30088E032
:1001800091E00E94B3008DE091E00E94B30082E113
:1001900091E00E94B30087E191E00E94B3008CE1FE
:1001A00091E00E94B3008FE291E00E94B30088E3E7
:1001B00091E00E94B3008DE391E00E94B30082E4DD
:1001C00091E00E94B3008FEF99E6A8E18150904042
:1001D000A040E1F700C000000E947C0008950E944A
:1001E0005300C6E4D1E0CE010E948D008FEF99E666
:1001F000A8E181509040A040E1F700C00000F3CF9B
:10020000269A01978230910508F015B80895CF938A
:10021000DF93C0915C01D0915D01CE016BE471E090
:100220000E948101282F392F2115310519F481E011
:1002300090E002C082E090E0188278940E94000171
:10024000DF91CF910895A0915C01B0915D01FD0116
:100250008193F0935D01E0935C018A3029F411965B
:100260001C92F8940E94070108951F920F920FB6F6
:100270000F9211242F933F934F935F936F937F932C
:100280008F939F93AF93BF93EF93FF938091C6009B
:100290000E942301FF91EF91BF91AF919F918F91A8
:1002A0007F916F915F914F913F912F910F900FBE72
:1002B0000F901F9018959093C5008093C4001092E2
:1002C000C000E1ECF0E0808188698083E2ECF0E03E
:1002D0008081866080830895E0ECF0E0908195FF56
:1002E000FDCF8093C60008958AB180668AB981EFF8
:1002F00084BD81E085BD8FEF86BD87BD8BEE88BD57
:100300000895FB01DC018D91019080190110D9F352
:08031000990B0895F894FFCF4A
:100318002B2B2B000D4154004154453000415451C2
:1003280031004154433100415452310041544E3D53
:10033800426C7565636F6E74726F6C6C65720041A8
:1003480054503D3132333400415444300041545804
:10035800300041544F00576173200067616E7A5432
:0C0368006F6C6C657242656665686C0025
:00000001FF
