:100000000C9434000C9451000C9451000C94510049
:100010000C9451000C9451000C9451000C9451001C
:100020000C9451000C9451000C9451000C9451000C
:100030000C9451000C9451000C9451000C945100FC
:100040000C9451000C9451000C942B010C94510011
:100050000C9451000C9451000C9451000C945100DC
:100060000C9451000C94510011241FBECFEFD8E026
:10007000DEBFCDBF11E0A0E0B1E0E0E2F3E002C0FE
:1000800005900D92AA36B107D9F711E0AAE6B1E0C2
:1000900001C01D92A737B107E1F70E9465010C94DA
:1000A0008E010C940000279A2F988FE798E3A1E027
:1000B00081509040A040E1F700C0000008952F9AC1
:1000C00027988FEF9BE7A2E981509040A040E1F78D
:1000D00000C0000008950E9453000E945F00089530
:1000E0000E947D018FE19EE40197F1F700C00000BE
:1000F0000895CF93DF93EC018881882331F0219616
:100100000E94700089918823D9F7DF91CF910895DB
:100110008FEF9BE4ADE181509040A040E1F700C03B
:10012000000080E091E00E9479008FEF9BE4ADE158
:1001300081509040A040E1F700C0000008950E9467
:1001400079008DE00E9470000895CF93DF93EC0159
:1001500084E091E00E947900CE010E947900DF9155
:10016000CF9108950E946B0088E091E00E949F006B
:100170008CE091E00E949F0081E191E00E949F004D
:1001800086E191E00E949F008BE191E00E949F0038
:1001900080E291E00E949F0083E391E00E949F0033
:1001A0008CE391E00E949F0081E491E00E949F0017
:1001B00086E491E00E949F008FEF99E6A8E18150CC
:1001C0009040A040E1F700C000000E946B008AE46C
:1001D00091E00E94A500089589E190E00E946A01E3
:1001E00078948FEF90E7A2E081509040A040E1F733
:1001F00000C0000080E591E00E94A5000895809174
:100200006B018130E1F78CE691E065E571E00E94D9
:100210008501282F392F2115310529F48BE591E02F
:100220000E94790014C08CE691E06FE571E00E94B5
:100230008501282F392F2115310529F485E691E014
:100240000E94790004C08CE691E00E94A500109203
:100250006B01789408951F920F920FB60F9211249C
:100260008F939F93EF93FF938091C60090916B01C2
:10027000992311F58A3099F08D3089F090916A01B7
:100280009A3068F490916A01ECE6F1E0E90FF11D13
:10029000808380916A018F5F80936A010DC0809195
:1002A0006A01ECE6F1E0E80FF11D108210926A019C
:1002B00081E080936B01F894FF91EF919F918F9172
:1002C0000F900FBE0F901F9018950E94EC000E9497
:1002D000FF00FDCF9093C5008093C4001092C00032
:1002E000E1ECF0E0808188698083E2ECF0E08081DD
:1002F000866080838091C6000895E0ECF0E09081F4
:1003000095FFFDCF8093C6000895FB01DC018D9120
:10031000019080190110D9F3990B0895F894FFCF3B
:100320002B2B2B0042435F000D41540041544530BC
:100330000041545131004154433100415452310085
:1003400041544E3D426C7565636F6E74726F6C6C98
:100350006572004154503D313233340041544430D1
:1003600000415458300041544F0072657365740069
:10037000696E697400777573656C0078797A0064CA
:0A0380007573656C00616263000094
:00000001FF
