:100000000C9434000C9451000C9451000C94510049
:100010000C9451000C9451000C9451000C9451001C
:100020000C9451000C9451000C9451000C9451000C
:100030000C9451000C9451000C9451000C945100FC
:100040000C9451000C9451000C9451000C945100EC
:100050000C9451000C9451000C9451000C945100DC
:100060000C9451000C94510011241FBECFEFD8E026
:10007000DEBFCDBF11E0A0E0B1E0E8E0F1E002C0FA
:1000800005900D92A630B107D9F711E0A6E0B1E0D6
:1000900001C01D92A630B107E1F70E9453000C94F5
:1000A00082000C9400000E945B00C0E0D1E0CE0111
:1000B0000E947300FCCF1092C5008AE08093C400B8
:1000C000E1ECF0E0808188608083E2ECF0E0808108
:1000D0008E6080830895E0ECF0E0908195FFFDCF85
:1000E0008093C6000895CF93DF93EC018881882325
:1000F00031F021960E946B0089918823D9F7DF9116
:08010000CF910895F894FFCFA0
:0601080048616C6C6F0001
:00000001FF
